{
  "_format": "hh-sol-artifact-1",
  "contractName": "BLSVerifying",
  "sourceName": "contracts/BLSVerifying.sol",
  "abi": [
    {
      "inputs": [],
      "name": "BLS_DOMAIN",
      "outputs": [
        {
          "internalType": "bytes32",
          "name": "",
          "type": "bytes32"
        }
      ],
      "stateMutability": "view",
      "type": "function"
    },
    {
      "inputs": [],
      "name": "N",
      "outputs": [
        {
          "internalType": "uint256",
          "name": "",
          "type": "uint256"
        }
      ],
      "stateMutability": "view",
      "type": "function"
    },
    {
      "inputs": [
        {
          "internalType": "bytes",
          "name": "_data",
          "type": "bytes"
        }
      ],
      "name": "bytesToBytes32",
      "outputs": [
        {
          "internalType": "bytes32",
          "name": "",
          "type": "bytes32"
        }
      ],
      "stateMutability": "pure",
      "type": "function"
    },
    {
      "inputs": [
        {
          "internalType": "bytes",
          "name": "a",
          "type": "bytes"
        },
        {
          "internalType": "bytes",
          "name": "b",
          "type": "bytes"
        }
      ],
      "name": "compareBytes",
      "outputs": [
        {
          "internalType": "bool",
          "name": "",
          "type": "bool"
        }
      ],
      "stateMutability": "pure",
      "type": "function"
    },
    {
      "inputs": [
        {
          "internalType": "bytes",
          "name": "data",
          "type": "bytes"
        }
      ],
      "name": "getTrailingPublicKey",
      "outputs": [
        {
          "internalType": "uint256[4]",
          "name": "publicKey",
          "type": "uint256[4]"
        }
      ],
      "stateMutability": "pure",
      "type": "function"
    },
    {
      "inputs": [
        {
          "internalType": "bytes",
          "name": "domain",
          "type": "bytes"
        },
        {
          "internalType": "bytes",
          "name": "message",
          "type": "bytes"
        }
      ],
      "name": "hashToPoint",
      "outputs": [
        {
          "internalType": "uint256[2]",
          "name": "",
          "type": "uint256[2]"
        }
      ],
      "stateMutability": "view",
      "type": "function"
    },
    {
      "inputs": [
        {
          "internalType": "uint256[2]",
          "name": "signature",
          "type": "uint256[2]"
        },
        {
          "internalType": "uint256[4][]",
          "name": "pubkeys",
          "type": "uint256[4][]"
        },
        {
          "internalType": "uint256[2][]",
          "name": "messages",
          "type": "uint256[2][]"
        }
      ],
      "name": "validateMultipleUserOpSignature",
      "outputs": [
        {
          "internalType": "bool",
          "name": "",
          "type": "bool"
        }
      ],
      "stateMutability": "view",
      "type": "function"
    },
    {
      "inputs": [
        {
          "internalType": "uint256[2]",
          "name": "signature",
          "type": "uint256[2]"
        },
        {
          "internalType": "uint256[4]",
          "name": "pubkey",
          "type": "uint256[4]"
        },
        {
          "internalType": "uint256[2]",
          "name": "message",
          "type": "uint256[2]"
        }
      ],
      "name": "validateUserOpSignature1",
      "outputs": [
        {
          "internalType": "bool",
          "name": "",
          "type": "bool"
        }
      ],
      "stateMutability": "view",
      "type": "function"
    },
    {
      "inputs": [
        {
          "internalType": "bytes",
          "name": "_signature",
          "type": "bytes"
        },
        {
          "internalType": "bytes",
          "name": "_pubkey",
          "type": "bytes"
        },
        {
          "internalType": "bytes",
          "name": "_message",
          "type": "bytes"
        }
      ],
      "name": "validateUserOpSignature2",
      "outputs": [
        {
          "internalType": "bool",
          "name": "",
          "type": "bool"
        }
      ],
      "stateMutability": "view",
      "type": "function"
    },
    {
      "inputs": [
        {
          "internalType": "bytes",
          "name": "_signature",
          "type": "bytes"
        },
        {
          "internalType": "bytes",
          "name": "_pubkey",
          "type": "bytes"
        },
        {
          "internalType": "bytes",
          "name": "_message",
          "type": "bytes"
        },
        {
          "internalType": "bytes",
          "name": "_messageHash",
          "type": "bytes"
        },
        {
          "internalType": "bytes",
          "name": "_domain",
          "type": "bytes"
        }
      ],
      "name": "validateUserOpSignature3",
      "outputs": [
        {
          "internalType": "bool",
          "name": "",
          "type": "bool"
        }
      ],
      "stateMutability": "view",
      "type": "function"
    }
  ],
  "bytecode": "0x608060405234801561001057600080fd5b50612458806100206000396000f3fe608060405234801561001057600080fd5b506004361061009d5760003560e01c8063b7620eb411610066578063b7620eb414610180578063bfe370d9146101b0578063c9e525df146101e0578063d259183d146101fe578063e8e8f0c51461022e5761009d565b80629d9250146100a25780630a3366c3146100c0578063170d53e6146100f057806344df82ee1461012057806354894f5814610150575b600080fd5b6100aa61025e565b6040516100b79190610fdf565b60405180910390f35b6100da60048036038101906100d59190611073565b610282565b6040516100e79190611142565b60405180910390f35b61010a600480360381019061010591906111a1565b6103f5565b6040516101179190611142565b60405180910390f35b61013a600480360381019061013591906111f5565b61047c565b6040516101479190611142565b60405180910390f35b61016a60048036038101906101659190611453565b610a7e565b6040516101779190611580565b60405180910390f35b61019a6004803603810190610195919061159b565b610b0f565b6040516101a79190611668565b60405180910390f35b6101ca60048036038101906101c5919061159b565b610b8f565b6040516101d79190610fdf565b60405180910390f35b6101e8610be8565b6040516101f59190611692565b60405180910390f35b61021860048036038101906102139190611453565b610c0c565b6040516102259190611142565b60405180910390f35b610248600480360381019061024391906119c1565b610cda565b6040516102559190611142565b60405180910390f35b7fd84c4373167c517e9ccd66803f86d8a4f49e7e1315a7a73b516affea7428f82b81565b60008087878101906102949190611a4c565b9050600086868101906102a79190611a79565b9050600085858101906102ba9190611a4c565b90506103136040518060400160405280600d81526020017f7369676e61747572653a202573000000000000000000000000000000000000008152508460006002811061030957610308611aa6565b5b6020020151610d61565b61036a6040518060400160405280600d81526020017f7369676e61747572653a20257300000000000000000000000000000000000000815250846001600281106103605761035f611aa6565b5b6020020151610d61565b73__$ef9c3d7698af39cc39524484516bc81727$__63ebbdac918484846040518463ffffffff1660e01b81526004016103a593929190611bc0565b602060405180830381865af41580156103c2573d6000803e3d6000fd5b505050506040513d601f19601f820116820180604052508101906103e69190611c24565b93505050509695505050505050565b600073__$ef9c3d7698af39cc39524484516bc81727$__63ebbdac918585856040518463ffffffff1660e01b815260040161043293929190611c7a565b602060405180830381865af415801561044f573d6000803e3d6000fd5b505050506040513d601f19601f820116820180604052508101906104739190611c24565b90509392505050565b6000808b8b81019061048e9190611a4c565b905060008a8a8101906104a19190611a79565b9050600073__$ef9c3d7698af39cc39524484516bc81727$__63a850a9097fd84c4373167c517e9ccd66803f86d8a4f49e7e1315a7a73b516affea7428f82b8c8c6040518463ffffffff1660e01b815260040161050093929190611cff565b6040805180830381865af415801561051c573d6000803e3d6000fd5b505050506040513d601f19601f820116820180604052508101906105409190611dd1565b9050600088888101906105539190611a4c565b90506106fd73__$ef9c3d7698af39cc39524484516bc81727$__63a850a9097fd84c4373167c517e9ccd66803f86d8a4f49e7e1315a7a73b516affea7428f82b8e8e6040518463ffffffff1660e01b81526004016105b393929190611cff565b6040805180830381865af41580156105cf573d6000803e3d6000fd5b505050506040513d601f19601f820116820180604052508101906105f39190611dd1565b6040516020016106039190611e87565b60405160208183030381529060405273__$ef9c3d7698af39cc39524484516bc81727$__63a850a9096106798b8b8080601f016020809104026020016040519081016040528093929190818152602001838380828437600081840152601f19601f82011690508083019250505050505050610b8f565b8f8f6040518463ffffffff1660e01b815260040161069993929190611cff565b6040805180830381865af41580156106b5573d6000803e3d6000fd5b505050506040513d601f19601f820116820180604052508101906106d99190611dd1565b6040516020016106e99190611e87565b604051602081830303815290604052610c0c565b15610745576107406040518060400160405280600581526020017f657175616c000000000000000000000000000000000000000000000000000000815250610dfd565b610784565b6107836040518060400160405280600981526020017f6e6f7420657175616c0000000000000000000000000000000000000000000000815250610dfd565b5b6107db6040518060400160405280601081526020017f6d65737367614861736820303a20257300000000000000000000000000000000815250826000600281106107d1576107d0611aa6565b5b6020020151610d61565b6108326040518060400160405280600d81526020017f6d65737361676520303a202573000000000000000000000000000000000000008152508360006002811061082857610827611aa6565b5b6020020151610d61565b6108896040518060400160405280601081526020017f6d65737367614861736820313a202573000000000000000000000000000000008152508260016002811061087f5761087e611aa6565b5b6020020151610d61565b6108e06040518060400160405280600d81526020017f6d65737361676520313a20257300000000000000000000000000000000000000815250836001600281106108d6576108d5611aa6565b5b6020020151610d61565b600073__$ef9c3d7698af39cc39524484516bc81727$__63ebbdac918686866040518463ffffffff1660e01b815260040161091d93929190611bc0565b602060405180830381865af415801561093a573d6000803e3d6000fd5b505050506040513d601f19601f8201168201806040525081019061095e9190611c24565b9050600073__$ef9c3d7698af39cc39524484516bc81727$__63ebbdac918787866040518463ffffffff1660e01b815260040161099d93929190611bc0565b602060405180830381865af41580156109ba573d6000803e3d6000fd5b505050506040513d601f19601f820116820180604052508101906109de9190611c24565b9050610a1f6040518060400160405280600981526020017f66697273743a202573000000000000000000000000000000000000000000000081525083610e96565b610a5e6040518060400160405280600a81526020017f7365636f6e643a2025730000000000000000000000000000000000000000000081525082610e96565b818015610a685750805b96505050505050509a9950505050505050505050565b610a86610f78565b73__$ef9c3d7698af39cc39524484516bc81727$__63a850a909610aa985610b8f565b846040518363ffffffff1660e01b8152600401610ac7929190611f10565b6040805180830381865af4158015610ae3573d6000803e3d6000fd5b505050506040513d601f19601f82011682018060405250810190610b079190611dd1565b905092915050565b610b17610f9a565b60008251905060808111610b60576040517f08c379a0000000000000000000000000000000000000000000000000000000008152600401610b5790611f9d565b60405180910390fd5b606081840103805183526020810151602084015260408101516040840152606081015160608401525050919050565b6000602082511115610bd6576040517f08c379a0000000000000000000000000000000000000000000000000000000008152600401610bcd9061202f565b60405180910390fd5b60006020830151905080915050919050565b7f30644e72e131a029b85045b68181585d97816a916871ca8d3c208c16d87cfd4781565b60008151835114610c205760009050610cd4565b60005b8351811015610cce57828181518110610c3f57610c3e611aa6565b5b602001015160f81c60f81b7effffffffffffffffffffffffffffffffffffffffffffffffffffffffffffff1916848281518110610c7f57610c7e611aa6565b5b602001015160f81c60f81b7effffffffffffffffffffffffffffffffffffffffffffffffffffffffffffff191614610cbb576000915050610cd4565b8080610cc69061207e565b915050610c23565b50600190505b92915050565b600073__$ef9c3d7698af39cc39524484516bc81727$__63914137638585856040518463ffffffff1660e01b8152600401610d17939291906122e8565b602060405180830381865af4158015610d34573d6000803e3d6000fd5b505050506040513d601f19601f82011682018060405250810190610d589190611c24565b90509392505050565b610df98282604051602401610d77929190612371565b6040516020818303038152906040527fb60e72cc000000000000000000000000000000000000000000000000000000007bffffffffffffffffffffffffffffffffffffffffffffffffffffffff19166020820180517bffffffffffffffffffffffffffffffffffffffffffffffffffffffff8381831617835250505050610f32565b5050565b610e9381604051602401610e1191906123a1565b6040516020818303038152906040527f41304fac000000000000000000000000000000000000000000000000000000007bffffffffffffffffffffffffffffffffffffffffffffffffffffffff19166020820180517bffffffffffffffffffffffffffffffffffffffffffffffffffffffff8381831617835250505050610f32565b50565b610f2e8282604051602401610eac9291906123c3565b6040516020818303038152906040527fc3b55635000000000000000000000000000000000000000000000000000000007bffffffffffffffffffffffffffffffffffffffffffffffffffffffff19166020820180517bffffffffffffffffffffffffffffffffffffffffffffffffffffffff8381831617835250505050610f32565b5050565b610f4981610f41610f4c610f6d565b63ffffffff16565b50565b60006a636f6e736f6c652e6c6f679050600080835160208501845afa505050565b610fbc819050919050565b6040518060400160405280600290602082028036833780820191505090505090565b6040518060800160405280600490602082028036833780820191505090505090565b610fc46123f3565b565b6000819050919050565b610fd981610fc6565b82525050565b6000602082019050610ff46000830184610fd0565b92915050565b6000604051905090565b600080fd5b600080fd5b600080fd5b600080fd5b600080fd5b60008083601f8401126110335761103261100e565b5b8235905067ffffffffffffffff8111156110505761104f611013565b5b60208301915083600182028301111561106c5761106b611018565b5b9250929050565b600080600080600080606087890312156110905761108f611004565b5b600087013567ffffffffffffffff8111156110ae576110ad611009565b5b6110ba89828a0161101d565b9650965050602087013567ffffffffffffffff8111156110dd576110dc611009565b5b6110e989828a0161101d565b9450945050604087013567ffffffffffffffff81111561110c5761110b611009565b5b61111889828a0161101d565b92509250509295509295509295565b60008115159050919050565b61113c81611127565b82525050565b60006020820190506111576000830184611133565b92915050565b60008190508260206002028201111561117957611178611018565b5b92915050565b60008190508260206004028201111561119b5761119a611018565b5b92915050565b600080600061010084860312156111bb576111ba611004565b5b60006111c98682870161115d565b93505060406111da8682870161117f565b92505060c06111eb8682870161115d565b9150509250925092565b60008060008060008060008060008060a08b8d03121561121857611217611004565b5b60008b013567ffffffffffffffff81111561123657611235611009565b5b6112428d828e0161101d565b9a509a505060208b013567ffffffffffffffff81111561126557611264611009565b5b6112718d828e0161101d565b985098505060408b013567ffffffffffffffff81111561129457611293611009565b5b6112a08d828e0161101d565b965096505060608b013567ffffffffffffffff8111156112c3576112c2611009565b5b6112cf8d828e0161101d565b945094505060808b013567ffffffffffffffff8111156112f2576112f1611009565b5b6112fe8d828e0161101d565b92509250509295989b9194979a5092959850565b600080fd5b6000601f19601f8301169050919050565b7f4e487b7100000000000000000000000000000000000000000000000000000000600052604160045260246000fd5b61136082611317565b810181811067ffffffffffffffff8211171561137f5761137e611328565b5b80604052505050565b6000611392610ffa565b905061139e8282611357565b919050565b600067ffffffffffffffff8211156113be576113bd611328565b5b6113c782611317565b9050602081019050919050565b82818337600083830152505050565b60006113f66113f1846113a3565b611388565b90508281526020810184848401111561141257611411611312565b5b61141d8482856113d4565b509392505050565b600082601f83011261143a5761143961100e565b5b813561144a8482602086016113e3565b91505092915050565b6000806040838503121561146a57611469611004565b5b600083013567ffffffffffffffff81111561148857611487611009565b5b61149485828601611425565b925050602083013567ffffffffffffffff8111156114b5576114b4611009565b5b6114c185828601611425565b9150509250929050565b600060029050919050565b600081905092915050565b6000819050919050565b6000819050919050565b6114fe816114eb565b82525050565b600061151083836114f5565b60208301905092915050565b6000602082019050919050565b611532816114cb565b61153c81846114d6565b9250611547826114e1565b8060005b8381101561157857815161155f8782611504565b965061156a8361151c565b92505060018101905061154b565b505050505050565b60006040820190506115956000830184611529565b92915050565b6000602082840312156115b1576115b0611004565b5b600082013567ffffffffffffffff8111156115cf576115ce611009565b5b6115db84828501611425565b91505092915050565b600060049050919050565b600081905092915050565b6000819050919050565b6000602082019050919050565b61161a816115e4565b61162481846115ef565b925061162f826115fa565b8060005b838110156116605781516116478782611504565b965061165283611604565b925050600181019050611633565b505050505050565b600060808201905061167d6000830184611611565b92915050565b61168c816114eb565b82525050565b60006020820190506116a76000830184611683565b92915050565b600067ffffffffffffffff8211156116c8576116c7611328565b5b602082029050919050565b6116dc816114eb565b81146116e757600080fd5b50565b6000813590506116f9816116d3565b92915050565b600061171261170d846116ad565b611388565b9050806020840283018581111561172c5761172b611018565b5b835b81811015611755578061174188826116ea565b84526020840193505060208101905061172e565b5050509392505050565b600082601f8301126117745761177361100e565b5b60026117818482856116ff565b91505092915050565b600067ffffffffffffffff8211156117a5576117a4611328565b5b602082029050602081019050919050565b600067ffffffffffffffff8211156117d1576117d0611328565b5b602082029050919050565b60006117ef6117ea846117b6565b611388565b9050806020840283018581111561180957611808611018565b5b835b81811015611832578061181e88826116ea565b84526020840193505060208101905061180b565b5050509392505050565b600082601f8301126118515761185061100e565b5b600461185e8482856117dc565b91505092915050565b600061187a6118758461178a565b611388565b9050808382526020820190506080840283018581111561189d5761189c611018565b5b835b818110156118c657806118b2888261183c565b84526020840193505060808101905061189f565b5050509392505050565b600082601f8301126118e5576118e461100e565b5b81356118f5848260208601611867565b91505092915050565b600067ffffffffffffffff82111561191957611918611328565b5b602082029050602081019050919050565b600061193d611938846118fe565b611388565b905080838252602082019050604084028301858111156119605761195f611018565b5b835b818110156119895780611975888261175f565b845260208401935050604081019050611962565b5050509392505050565b600082601f8301126119a8576119a761100e565b5b81356119b884826020860161192a565b91505092915050565b6000806000608084860312156119da576119d9611004565b5b60006119e88682870161175f565b935050604084013567ffffffffffffffff811115611a0957611a08611009565b5b611a15868287016118d0565b925050606084013567ffffffffffffffff811115611a3657611a35611009565b5b611a4286828701611993565b9150509250925092565b600060408284031215611a6257611a61611004565b5b6000611a708482850161175f565b91505092915050565b600060808284031215611a8f57611a8e611004565b5b6000611a9d8482850161183c565b91505092915050565b7f4e487b7100000000000000000000000000000000000000000000000000000000600052603260045260246000fd5b600081905092915050565b611ae9816114eb565b82525050565b6000611afb8383611ae0565b60208301905092915050565b611b10816114cb565b611b1a8184611ad5565b9250611b25826114e1565b8060005b83811015611b56578151611b3d8782611aef565b9650611b488361151c565b925050600181019050611b29565b505050505050565b600081905092915050565b611b72816115e4565b611b7c8184611b5e565b9250611b87826115fa565b8060005b83811015611bb8578151611b9f8782611aef565b9650611baa83611604565b925050600181019050611b8b565b505050505050565b600061010082019050611bd66000830186611b07565b611be36040830185611b69565b611bf060c0830184611b07565b949350505050565b611c0181611127565b8114611c0c57600080fd5b50565b600081519050611c1e81611bf8565b92915050565b600060208284031215611c3a57611c39611004565b5b6000611c4884828501611c0f565b91505092915050565b82818337505050565b611c6660408383611c51565b5050565b611c7660808383611c51565b5050565b600061010082019050611c906000830186611c5a565b611c9d6040830185611c6a565b611caa60c0830184611c5a565b949350505050565b611cbb81610fc6565b82525050565b600082825260208201905092915050565b6000611cde8385611cc1565b9350611ceb8385846113d4565b611cf483611317565b840190509392505050565b6000604082019050611d146000830186611cb2565b8181036020830152611d27818486611cd2565b9050949350505050565b600081519050611d40816116d3565b92915050565b6000611d59611d54846116ad565b611388565b90508060208402830185811115611d7357611d72611018565b5b835b81811015611d9c5780611d888882611d31565b845260208401935050602081019050611d75565b5050509392505050565b600082601f830112611dbb57611dba61100e565b5b6002611dc8848285611d46565b91505092915050565b600060408284031215611de757611de6611004565b5b6000611df584828501611da6565b91505092915050565b600081905092915050565b611e12816114eb565b82525050565b6000611e248383611e09565b60208301905092915050565b611e39816114cb565b611e438184611dfe565b9250611e4e826114e1565b8060005b83811015611e7f578151611e668782611e18565b9650611e718361151c565b925050600181019050611e52565b505050505050565b6000611e938284611e30565b60408201915081905092915050565b600081519050919050565b60005b83811015611ecb578082015181840152602081019050611eb0565b60008484015250505050565b6000611ee282611ea2565b611eec8185611cc1565b9350611efc818560208601611ead565b611f0581611317565b840191505092915050565b6000604082019050611f256000830185611cb2565b8181036020830152611f378184611ed7565b90509392505050565b600082825260208201905092915050565b7f6461746120746f6f2073686f727420666f722073696700000000000000000000600082015250565b6000611f87601683611f40565b9150611f9282611f51565b602082019050919050565b60006020820190508181036000830152611fb681611f7a565b9050919050565b7f446174612063616e6e6f74206265206c6f6e676572207468616e20333220627960008201527f7465730000000000000000000000000000000000000000000000000000000000602082015250565b6000612019602383611f40565b915061202482611fbd565b604082019050919050565b600060208201905081810360008301526120488161200c565b9050919050565b7f4e487b7100000000000000000000000000000000000000000000000000000000600052601160045260246000fd5b6000612089826114eb565b91507fffffffffffffffffffffffffffffffffffffffffffffffffffffffffffffffff82036120bb576120ba61204f565b5b600182019050919050565b600081519050919050565b600082825260208201905092915050565b6000819050602082019050919050565b600081905092915050565b612106816115e4565b61211081846120f2565b925061211b826115fa565b8060005b8381101561214c5781516121338782611aef565b965061213e83611604565b92505060018101905061211f565b505050505050565b600061216083836120fd565b60808301905092915050565b6000602082019050919050565b6000612184826120c6565b61218e81856120d1565b9350612199836120e2565b8060005b838110156121ca5781516121b18882612154565b97506121bc8361216c565b92505060018101905061219d565b5085935050505092915050565b600081519050919050565b600082825260208201905092915050565b6000819050602082019050919050565b600081905092915050565b612217816114cb565b6122218184612203565b925061222c826114e1565b8060005b8381101561225d5781516122448782611aef565b965061224f8361151c565b925050600181019050612230565b505050505050565b6000612271838361220e565b60408301905092915050565b6000602082019050919050565b6000612295826121d7565b61229f81856121e2565b93506122aa836121f3565b8060005b838110156122db5781516122c28882612265565b97506122cd8361227d565b9250506001810190506122ae565b5085935050505092915050565b60006080820190506122fd6000830186611b07565b818103604083015261230f8185612179565b90508181036060830152612323818461228a565b9050949350505050565b600081519050919050565b60006123438261232d565b61234d8185611f40565b935061235d818560208601611ead565b61236681611317565b840191505092915050565b6000604082019050818103600083015261238b8185612338565b905061239a6020830184611683565b9392505050565b600060208201905081810360008301526123bb8184612338565b905092915050565b600060408201905081810360008301526123dd8185612338565b90506123ec6020830184611133565b9392505050565b7f4e487b7100000000000000000000000000000000000000000000000000000000600052605160045260246000fdfea2646970667358221220331548b705bb4b9bbf78f5169916ef7c050c6feb27f92179fe8992e4f04eb61364736f6c63430008130033",
  "linkReferences": {
    "contracts/bls/lib/BLSOpen.sol": {
      "BLSOpen": [
        {
          "length": 20,
          "start": 908
        },
        {
          "length": 20,
          "start": 1049
        },
        {
          "length": 20,
          "start": 1223
        },
        {
          "length": 20,
          "start": 1402
        },
        {
          "length": 20,
          "start": 1588
        },
        {
          "length": 20,
          "start": 2308
        },
        {
          "length": 20,
          "start": 2436
        },
        {
          "length": 20,
          "start": 2728
        },
        {
          "length": 20,
          "start": 3326
        }
      ]
    }
  },
  "deployedLinkReferences": {
    "contracts/bls/lib/BLSOpen.sol": {
      "BLSOpen": [
        {
          "length": 20,
          "start": 876
        },
        {
          "length": 20,
          "start": 1017
        },
        {
          "length": 20,
          "start": 1191
        },
        {
          "length": 20,
          "start": 1370
        },
        {
          "length": 20,
          "start": 1556
        },
        {
          "length": 20,
          "start": 2276
        },
        {
          "length": 20,
          "start": 2404
        },
        {
          "length": 20,
          "start": 2696
        },
        {
          "length": 20,
          "start": 3294
        }
      ]
    }
  }
}